{
  "transactions": [
    {
      "hash": "0xdb1d232229ccc6baec9ec8405f495f061eec4c236167e121059c215a75d169d1",
      "transactionType": "CALL",
      "contractName": null,
      "contractAddress": "0x779877a7b0d9e8603169ddbd7836e478b4624789",
      "function": "transferAndCall(address,uint256,bytes)",
      "arguments": [
        "0x9DdfaCa8183c41ad55329BdeeD9F6A8d53168B1B",
        "10000000000000000000",
        "0x3a49ba3f1c8ea8d377c8a1f2409965927e9df557cd710aaaf6a8d979add2b8b1"
      ],
      "transaction": {
        "from": "0x870eecb57de0903d5e8f187441190c3e83cd94bd",
        "to": "0x779877a7b0d9e8603169ddbd7836e478b4624789",
        "gas": "0x14cbb",
        "value": "0x0",
        "input": "0x4000aea00000000000000000000000009ddfaca8183c41ad55329bdeed9f6a8d53168b1b0000000000000000000000000000000000000000000000008ac7230489e80000000000000000000000000000000000000000000000000000000000000000006000000000000000000000000000000000000000000000000000000000000000203a49ba3f1c8ea8d377c8a1f2409965927e9df557cd710aaaf6a8d979add2b8b1",
        "nonce": "0x25",
        "chainId": "0xaa36a7"
      },
      "additionalContracts": [],
      "isFixedGasLimit": false
    }
  ],
  "receipts": [
    {
      "status": "0x1",
      "cumulativeGasUsed": "0x11608af",
      "logs": [
        {
          "address": "0x779877a7b0d9e8603169ddbd7836e478b4624789",
          "topics": [
            "0xddf252ad1be2c89b69c2b068fc378daa952ba7f163c4a11628f55a4df523b3ef",
            "0x000000000000000000000000870eecb57de0903d5e8f187441190c3e83cd94bd",
            "0x0000000000000000000000009ddfaca8183c41ad55329bdeed9f6a8d53168b1b"
          ],
          "data": "0x0000000000000000000000000000000000000000000000008ac7230489e80000",
          "blockHash": "0xa5d4dee7e2499b21d4c7af9a542354f701c3834173ee529dbf674c1b8650c931",
          "blockNumber": "0x5f7ff8",
          "transactionHash": "0xdb1d232229ccc6baec9ec8405f495f061eec4c236167e121059c215a75d169d1",
          "transactionIndex": "0x67",
          "logIndex": "0x8f",
          "removed": false
        },
        {
          "address": "0x779877a7b0d9e8603169ddbd7836e478b4624789",
          "topics": [
            "0xe19260aff97b920c7df27010903aeb9c8d2be5d310a2c67824cf3f15396e4c16",
            "0x000000000000000000000000870eecb57de0903d5e8f187441190c3e83cd94bd",
            "0x0000000000000000000000009ddfaca8183c41ad55329bdeed9f6a8d53168b1b"
          ],
          "data": "0x0000000000000000000000000000000000000000000000008ac7230489e80000000000000000000000000000000000000000000000000000000000000000004000000000000000000000000000000000000000000000000000000000000000203a49ba3f1c8ea8d377c8a1f2409965927e9df557cd710aaaf6a8d979add2b8b1",
          "blockHash": "0xa5d4dee7e2499b21d4c7af9a542354f701c3834173ee529dbf674c1b8650c931",
          "blockNumber": "0x5f7ff8",
          "transactionHash": "0xdb1d232229ccc6baec9ec8405f495f061eec4c236167e121059c215a75d169d1",
          "transactionIndex": "0x67",
          "logIndex": "0x90",
          "removed": false
        },
        {
          "address": "0x9ddfaca8183c41ad55329bdeed9f6a8d53168b1b",
          "topics": [
            "0x1ced9348ff549fceab2ac57cd3a9de38edaaab274b725ee82c23e8fc8c4eec7a",
            "0x3a49ba3f1c8ea8d377c8a1f2409965927e9df557cd710aaaf6a8d979add2b8b1"
          ],
          "data": "0x0000000000000000000000000000000000000000000000008ac7230489e80000000000000000000000000000000000000000000000000001158e460913d00000",
          "blockHash": "0xa5d4dee7e2499b21d4c7af9a542354f701c3834173ee529dbf674c1b8650c931",
          "blockNumber": "0x5f7ff8",
          "transactionHash": "0xdb1d232229ccc6baec9ec8405f495f061eec4c236167e121059c215a75d169d1",
          "transactionIndex": "0x67",
          "logIndex": "0x91",
          "removed": false
        }
      ],
      "logsBloom": "0x00000004000000000000000000000000000200000020000000000000020000000000000000000000000000000000000000000000000000000000000000000000000000000000000000000008000000000000000000000000000020000020001008000000000800000000000000000000008000000000000000000010000040000000000000000000000000010008800000000020000000000000000000000000000000000000000000000000010000000000000000000000000004000000000000000002000000000000000000000000000000000000000100000000000000000010000000000000800000000000000000000000000000000000000000000000",
      "type": "0x2",
      "transactionHash": "0xdb1d232229ccc6baec9ec8405f495f061eec4c236167e121059c215a75d169d1",
      "transactionIndex": "0x67",
      "blockHash": "0xa5d4dee7e2499b21d4c7af9a542354f701c3834173ee529dbf674c1b8650c931",
      "blockNumber": "0x5f7ff8",
      "gasUsed": "0xf0e5",
      "effectiveGasPrice": "0x78133b33",
      "from": "0x870eecb57de0903d5e8f187441190c3e83cd94bd",
      "to": "0x779877a7b0d9e8603169ddbd7836e478b4624789",
      "contractAddress": null
    }
  ],
  "libraries": [],
  "pending": [],
  "returns": {},
  "timestamp": 1720288467,
  "chain": 11155111,
  "commit": "d07a4bc"
}